:020000040800F2
:10000000C0D6002031030008E99B0008816A00087F
:10001000E59B0008871A00089DC700080000000043
:100020000000000000000000000000007102000855
:10003000D524000800000000CD02000877A90008C0
:100040004B0300084B0300084B0300084B03000858
:100050004B0300084B030008D72400084B0300089B
:100060004B030008E1240008EB2400084B030008C0
:100070004B0300084B0300084B0300084B03000828
:100080004B0300084B0300084B0300084B03000818
:100090008D1A00084B0300084B030008F5240008E4
:1000A0004B0300084B0300084B0300084B030008F8
:1000B0004B0300084B0300084B0300084B030008E8
:1000C0004B0300084B0300084B0300084B030008D8
:1000D0004B03000891B000084B030008A5B00008CE
:1000E0004B0300084B0300084B0300084B030008B8
:1000F0004B0300084B0300084B030008E9200008ED
:100100004B0300084B0300084B0300084B03000897
:100110004B0300084B0300084B0300084B03000887
:100120004B030008652100084B0300084B0300083F
:100130004B0300084B0300084B0300084B03000867
:100140009D1A00084B0300084B030008BD9E0008E1
:10015000752100088521000895210008E5B10008F7
:100160004B0300084B0300084B0300084B03000837
:100170004B0300084B0300084B030008000000007D
:100180004B0300084B03000800F002F800F060F891
:100190000AA090E8000C82448344AAF10107DA45E2
:1001A00001D100F055F8AFF2090EBAE80F0013F0D4
:1001B000010F18BFFB1A43F001031847B8520100A2
:1001C000D85201000A444FF0000C10F8013B13F024
:1001D000070408BF10F8014B1D1108BF10F8015BA0
:1001E000641E05D010F8016B641E01F8016BF9D193
:1001F00013F0080F1EBF10F8014BAD1C0C1B09D1EA
:100200006D1E58BF01F801CBFAD505E014F8016B5B
:1002100001F8016B6D1EF9D59142D6D370470000ED
:100220000023002400250026103A28BF78C1FBD8FF
:10023000520728BF30C148BF0B6070471FB514F08C
:100240001BF99DE8030000F089FF1FBD10B510BD2C
:1002500001F008F81146FFF7F1FF10F085FC01F0FE
:1002600026F803B4FFF7F2FF03BC01F05BF80000CF
:100270002C4B19680868B0E8F04F80F30988BFF389
:100280006F8F4FF0000080F311887047000000006E
:1002900008480068006880F308884FF0000080F389
:1002A000148862B661B6BFF34F8FBFF36F8F00DF64
:1002B00000BF00BF08ED00E0DFF80C00016841F46A
:1002C00070010160704700BF88ED00E0EFF3098026
:1002D000BFF36F8F134B1A681EF0100F08BF20ED8D
:1002E000108A20E9F04F106009B44FF0500080F3FD
:1002F0001188BFF34F8FBFF36F8F12F06DFB4FF07C
:10030000000080F3118809BC19680868B0E8F04F54
:100310001EF0100F08BFB0EC108A80F30988BFF3FD
:100320006F8F7047E8050020EFF3058070470000ED
:100330000948804709480047FEE7FEE7FEE7FEE779
:10034000FEE7FEE7FEE7FEE7FEE7FEE704480549B5
:10035000054A064B7047000041AA000889010008C1
:10036000C0960020C0D60020C0B60020C0B6002035
:100370009FED1A1AF5EE000A40EE010ABDEEE00A02
:10038000F5EEC00A10EE100AF1EE10FA38BF401E6A
:1003900000EE100A1349F7EE001AB8EEC00A30EE6C
:1003A000C00ADFED0F0A20EE200AFCEEC00A10EEB4
:1003B000900AC0F3080000EE900A01EB8000F8EE0E
:1003C000600A90ED011A70EE600A90ED000A71EE7D
:1003D000E01A21EE800A00EE810A704783F9223E7E
:1003E000000000442C4C0108DFED190AB5EEC00AEC
:1003F00060EE200ABDEEE01A11EE100AF1EE10FADE
:1004000038BF401E00EE100A1349F7EE001AB8EE8E
:10041000C00A30EEC00ADFED0F0A60EE200ABCEE23
:10042000E00A10EE100AC0F3080000EE100A01EB1B
:100430008000B8EE400A90ED011A70EEC00A90ED0F
:10044000000A71EEE01A21EE800A00EE810A704780
:1004500083F9223E000000442C4C010870B405884A
:100460000E884468D1F804C05368B54208D140886A
:100470004988884201BF11888D425188884203D043
:1004800070BC6FF00200704705FB00F1880827D0B0
:1004900094ED001ADCED000A94ED010ADCED011A7E
:1004A00031EE201AD4ED020A70EE211A9CED020AF8
:1004B00083ED001AC3ED011A94ED031ADCED031A63
:1004C00030EE800A401E71EE210A83ED020A04F12B
:1004D0001004C3ED030A03F110030CF1100CD7D183
:1004E00011F0030030D0B0F1004F30D200282BDDE6
:1004F000211F1B1FACF1040210F0010F0AD091ED77
:10050000010AD2ED010A091D121D30EE200A83ED09
:10051000010A1B1D400817D091ED010AD2ED010A16
:10052000401E30EE200A83ED010A91ED020AD2ED61
:10053000020A01F1080102F1080230EE200A83EDFF
:10054000020A03F10803E7D170BC00207047B4EC45
:10055000010A401EFCEC010A30EE200AA3EC010A5D
:10056000F5D1F1E701804280436070472DE9F34FF8
:1005700084B0049840680090486801900498B0F8EE
:1005800000E04588DFEDFE0A00200290B0EE600A30
:10059000AE4506D108884988884204BF7146864521
:1005A00004D06FF0020006B0BDE8F08F01985FEA5A
:1005B000010C18BFB7EE001A3DD000BFBEEB0C0116
:1005C00017D0B1F1004F80F01F82002911DD021F0A
:1005D00011F0010F1CBFC2ED010A121D4B1006D015
:1005E000C2ED010AC2ED020A08325B1EF8D100EB2F
:1005F0008100BCF10102A0EC011A19D0B2F1004F48
:1006000080F00882002A13DD031F12F0010F1CBFC7
:10061000C3ED010A1B1D511008D000BFC3ED010A34
:10062000C3ED020A491E03F10803F7D100EB820073
:10063000BCF1010CC2D14FF000080395002D14BF8E
:10064000B0EE602A002000F0BF8100BF009908FBD7
:1006500005F001EB800B0199DBED002A01EB800036
:100660000346F0EE421AC64552D9AEEB0802ABEB98
:10067000850112F0010F17D001EB850191ED000A01
:10068000B5EEC00AF1EE10FA07DDB4EEE10AF1EEC4
:1006900010FA09DDF0EE401A06E0B1EE400AF4EE81
:1006A000C01AF1EE10FAF5D3521031D001EB850CDF
:1006B0009CED000AB5EEC00AF1EE10FA05DDB4EECD
:1006C000E10AF1EE10FA09DD06E0B1EE400AF4EEBF
:1006D000C01AF1EE10FA01D2F0EE401A01EBC5019A
:1006E00091ED000AB5EEC00AF1EE10FA05DDB4EEA8
:1006F000E10AF1EE10FA09DD06E0B1EE400AF4EE8F
:10070000C01AF1EE10FA01D2F0EE401A521ECDD10D
:10071000F5EEC01AF1EE10FA00F07381F5EEC02A82
:100720000126F1EE10FA0099D4BFB1EE620AB0EEE4
:10073000620AB4EE610AF1EE10FA1CBFAEEB0802D9
:10074000B2F1010C47D005FB08F201EB820292EDF9
:10075000001A00BFB0EE410A05FB06F4B5EEC00A70
:1007600000EB8404F1EE10FACCBFF0EE400AF1EE9B
:10077000400AF4EE610AF1EE10FA28D1B5EB080C4C
:1007800011D0BCF1004F7DD2BCF1000F0BDD00BFDA
:1007900092ED000AD1ED000ABCF1010CE2EC010A75
:1007A000A1EC010AF4D129000ED0B1F1004F6AD2B8
:1007B000002909DD94ED000AD0ED000A491EE4ECA1
:1007C000010AA0EC010AF5D1012002900BE0761C91
:1007D000BCF1010CBED10298012804D0F5EEC02A6C
:1007E000F1EE10FA7ED09BED000AB5EB08009A46B8
:1007F0005946064622D0B0F1004F74D200281DDDC4
:10080000091F10F0010F06D0F0EE400A80EEA01A8A
:1008100081ED011A091D401010D000BFD1ED010A71
:10082000401E80EE801A81ED011A91ED021AC1EE90
:10083000000AC1ED020A01F10801EFD1280026D01B
:10084000B0F1004F7ED2002821DDAAF1040110F0A2
:10085000010F06D0D1ED010A80EE801A81ED011A58
:10086000091D401013D000BFD1ED010A401E80EEDB
:10087000801A81ED011AD1ED020A80EE801A81ED15
:10088000021A01E0CBE0D6E001F10801ECD1DDE98C
:1008900000124FF000095FEA0E0773D0C14504BF94
:1008A00001EB860102EB850274D091ED000ADC4673
:1008B0005046330035D01C46B6F1004F7ED2002C96
:1008C0002FDD0B1FABF1040C16F0010F0FD0F0EE73
:1008D000400ADCED011AB0EE601A00EEE11A83ED79
:1008E000011A01E08DE0B1E01B1D0CF1040C741045
:1008F00015D000BFD3ED010A9CED011A40EE410A6C
:10090000C3ED010AD3ED020A9CED021A0CF1080CAA
:1009100040EE410AC3ED020A0833641EEAD101EB3E
:1009200086012B0036D0B3F1004F72D2002B31DD9F
:10093000A2F1040CAAF1040013F0010F0CD0DCEDBD
:10094000010A00E08BE090ED011A001D40EE410A23
:10095000CCED010A0CF1040C5C1019D0DCED010A9D
:1009600090ED011A40EE410ACCED010ADCED020ADD
:1009700090ED021A083040EE410ACCED020A03E085
:10098000000000000DE005E0641E0CF1080CE5D14C
:1009900002EB830201EB88017F1E09F101097FF45C
:1009A0007DAF009808F10108001D00900398401EDB
:1009B00003907FF44BAE0299012900E058E004BF98
:1009C00006B0BDE8F08F00BFB5EEC00AF1EE10FA38
:1009D0007FF4E9AD04990EFB05F3002B4A684FF054
:1009E00000010BD902EB810C9CED000AB5EEC00AA8
:1009F000F1EE10FA02D1491C8B42F3D88B427FF4FE
:100A0000D2AD6FF00400CEE5E0EC010A491EFBD147
:100A1000EFE538E0E0EC010A521EFBD108E692ED6A
:100A2000000AD1ED000ABCF1010CE2EC010AA1ECD4
:100A3000010AF4D1B7E694ED000AD0ED000A491E90
:100A4000E4EC010AA0EC010AF5D1BDE6D1ED000A03
:100A5000401E80EE801AA1EC011AF7D1EEE6D3ED2C
:100A6000000A401E80EE801AA3EC011AF7D10EE7AF
:100A7000BCEC011AD1ED000A5B1E40EE410AE1EC2C
:100A8000010AF5D14DE7B0EC011AD2ED000A5B1E68
:100A900040EE410AE2EC010AF5D17BE72DE9F04F87
:100AA00082B0466853680193058847884B880020C8
:100AB00000900888874201BFB2F800C0654552889F
:100AC00093421EBF6FF0020002B0BDE8F08F9FEDB1
:100AD000412A4FEA970EC7F3400B00BFDDE9000241
:100AE00002EB800A4A6898464FF00009B0EE420ACD
:100AF000B4465FEA0E0025D092ED001ADCED001A34
:100B000002EB8302DCED010A01EE810A92ED001A8C
:100B100002EB8302401ED2ED001A02EB830200EECC
:100B2000810A9CED021ADCED030A00040CF1100CA2
:100B3000000C01EE210A92ED001A02EB830200EE96
:100B4000810AD9D117F0030026D0ACF10404A2EB3E
:100B5000830210F0010F08D002EB8302D4ED010AEA
:100B600092ED001A241D00EE810A5FEA0B0013D0FB
:100B700002EB830CD4ED010A9CED001A02EBC302D8
:100B8000401E00EE810AD4ED020A92ED001A04F133
:100B9000080400EE810AEBD109F10100AAEC010A78
:100BA0001FFA80F9486800EB8902A8F101001FFADA
:100BB00080F8B8F1000F99D1009806EB8706184429
:100BC00080B20090681E05042D0C87D102B0002071
:100BD000BDE8F08F0000000070B405880E884468FE
:100BE000D1F804C05368B54208D14088498888428A
:100BF00001BF11888D425188884203D070BC6FF0CC
:100C00000200704705FB00F1880827D094ED001A18
:100C1000DCED000A94ED010ADCED011A31EE601AF8
:100C2000D4ED020A70EE611A9CED020A83ED001AFF
:100C3000C3ED011A94ED031ADCED031A30EEC00A7D
:100C4000401E71EE610A83ED020A04F11004C3ED47
:100C5000030A03F110030CF1100CD7D111F00300BB
:100C600030D0B0F1004F30D200282BDD211F1B1FE8
:100C7000ACF1040210F0010F0AD091ED010AD2ED9F
:100C8000010A091D121D30EE600A83ED010A1B1DC9
:100C9000400817D091ED010AD2ED010A401E30EE56
:100CA000600A83ED010A91ED020AD2ED020A01F118
:100CB000080102F1080230EE600A83ED020A03F136
:100CC0000803E7D170BC00207047B4EC010A401E55
:100CD000FCEC010A30EE600AA3EC010AF5D1F1E761
:100CE0002DE9F04F02884768B0F802804888D1F8B3
:100CF000049082B04FF0000A1646824207BF09886E
:100D000088456FF0020002B018BFBDE8F08F4FEACF
:100D1000980B02EB42000190C8F34000CDF80000B0
:100D200009EB8A01BBF1000F33D0019801EB820C73
:100D300001EB80043B46E64601EBC2054FEA0B009F
:100D400093ED000A401E81ED000A93ED010A01EBCC
:100D500002118CED000A93ED020A0CEB021C85EDEA
:100D6000000A93ED030A05EB021584ED000A04EB7B
:100D7000021403F11003E3D10EEB820000EB8200BA
:100D800000EB8201ABF10100504307EB0B1701EBC5
:100D9000001118F0030C21D03B1FA1EB82011CF0C5
:100DA000010F06D093ED010A01EB82011B1D81EDBD
:100DB000000A009880B100BF93ED010A01EB8204A4
:100DC00001EBC20184ED000A93ED020A401E81EDA1
:100DD000000A03F10803EFD107EB8C070AF10100C9
:100DE0001FFA80FA701E0604360C99D102B000205A
:100DF000BDE8F08F70B5064600F094F9056806F17D
:100E00000B0020F00704B4429CBF002070BD2B46AD
:100E10006A68BAB11068A04210D304F10801884290
:100E20003CBF5068586007D3516810194160116881
:100E3000091B016058601460101D70BD1346526894
:100E4000002AE7D12146284600F074F90028DED1B7
:100E500070BD70B50446051F00F064F90068002CF1
:100E600014BF446870BD002C18BFAC423CBF204684
:100E70006468F8D301680A18AA4218BF456003D114
:100E80002A6805461144016028684119A1421CBF27
:100E90006C6070BD6168696021680844286070BD3D
:100EA00053EA020C00F069802DE9F04B4FF0000688
:100EB000002B1FBFB3FA83F503FA05F424FA05F6F5
:100EC0005E4012BF1643B2FA82F502FA05F4C5F18C
:100ED00020051EBF22FA05FC44EA0C04203556EA20
:100EE000044C4FEA144418BF641C4FF000084FF044
:100EF0000009904271EB030C39D3002919BFB1FAF4
:100F000081F701FA07F6B0FA80F700FA07F6C7F1A1
:100F100020071EBF20FA07FC46EA0C062037B6FB66
:100F2000F4FCA7EB0507103F07F01F0BCBF12006E1
:100F30000CFA0BFB2CFA06F644BFB3460026202F12
:100F4000A4BF5E464FF0000B5BEA060C08BF4FF0F3
:100F5000010B19EB0B09ABFB027C48EB0608C01B2D
:100F600006FB02CC0BFB03CC71EB0C01C1E70B467B
:100F7000024641464846BDE8F08B13B54FF00000ED
:100F80004FF00001AFF30080BDE81C407047032A1A
:100F900040F2308010F0030C00F0158011F8013B96
:100FA000BCF1020F624498BF11F801CB00F8013B7D
:100FB00038BF11F8013BA2F1040298BF00F801CB41
:100FC00038BF00F8013B11F0030300F02580083A18
:100FD000C0F0088051F8043B083A51F804CBA0E86F
:100FE0000810F5E7121D5CBF51F8043B40F8043BC4
:100FF000AFF30080D20724BF11F8013B11F801CBF9
:1010000048BF11F8012B24BF00F8013B00F801CBC9
:1010100048BF00F8012B704710B5203AC0F00B8094
:10102000B1E81850203AA0E81850B1E81850A0E8EC
:101030001850BFF4F5AF5FEA027C24BFB1E8185046
:10104000A0E8185044BF18C918C0BDE810405FEAB6
:10105000827C24BF51F8043B40F8043B08BF704732
:10106000D20728BF31F8023B48BF11F8012B28BF37
:1010700020F8023B48BF00F8012B704702F0FF0345
:1010800043EA032242EA024200F002B84FF00002B3
:101090000429C0F0128010F0030C00F01B80CCF18A
:1010A000040CBCF1020F18BF00F8012BA8BF20F8F8
:1010B000022BA1EB0C0100F00DB85FEAC17C24BF4C
:1010C00000F8012B00F8012B48BF00F8012B7047F6
:1010D0004FF0000200B5134694469646203922BFD1
:1010E000A0E80C50A0E80C50B1F12001BFF4F7AF1C
:1010F000090728BFA0E80C5048BF0CC05DF804EBFE
:10110000890028BF40F8042B08BF704748BF20F86B
:10111000022B11F0804F18BF00F8012B7047704769
:1011200070477047004870476496002070477047CA
:101130007047704738B504460A4600206946AFF349
:101140000080002808BF38BD02460099204600F004
:101150004FF8012038BD012000F07CB8F8B5AFF39E
:101160000080054600200C46102000BF0646A81946
:10117000A0420DD9324669460020AFF30080070037
:1011800008BF00F067F80098A04218BF0546C419D0
:10119000FFF7C8FF05600746F01D20F0070046195D
:1011A000284600F00AF8B44208BFF8BDA21B314639
:1011B0003868BDE8F84000F01BB800210160C0E9C4
:1011C000011070471020704710B500F00DF800684E
:1011D00010BD10B5044600F007F8046010BD000013
:1011E000004870475C960020004870475C960020DD
:1011F000034640688C46002818BF88423CBF03461F
:101200004068F8D318681844884207D00CF10300EE
:1012100020F00700001D411A521A0146081D0A60FD
:10122000FFF717BE1FB584B000200A9C06AB04AAC6
:1012300002A90094AFF3008018B1DDE9020108B003
:1012400010BD0348204000F03DF800200146F6E7BD
:101250000000207C10B500F03DF8BDE8104000F023
:101260002CB870477546FFF7BBFFAE4605006946D0
:10127000534620F00700854618B020B5FFF766F802
:10128000BDE820404FF000064FF000074FF0000887
:101290004FF0000B21F00701AC46ACE8C009ACE808
:1012A000C009ACE8C009ACE8C0098D4670470446E7
:1012B000AFF300802046FEF7D4FF002801D000F0F5
:1012C00031B8704710B500F04DF8BDE81040FFF799
:1012D000F4BF000010B5012805D0002103A000F0E4
:1012E00027F8012010BD09A1F8E700005349475233
:1012F000544D454D3A204F7574206F6620686561E6
:1013000070206D656D6F7279000000003A204865AD
:101310006170206D656D6F727920636F7272757088
:101320007465640001491820ABBEFEE72600020088
:1013300070B505460C460A2000E06D1C00F068F808
:1013400035B128780028F8D102E0641C00F060F87C
:1013500014B120780028F8D1BDE870400A2000F0D0
:1013600057B8000010B5022803D0410103D50DA1E4
:1013700012E0002010BD010101D50FA10CE0C10059
:1013800001D511A108E0810001D512A104E04000BF
:1013900001D513A100E0002115A0FFF7C9FF01202E
:1013A00010BD0000496E76616C6964204F706572F3
:1013B0006174696F6E00000044697669646520425B
:1013C00079205A65726F00004F766572666C6F7790
:1013D00000000000556E646572666C6F7700000057
:1013E000496E657861637420526573756C74000092
:1013F0005349474650453A2041726974686D657497
:10140000696320657863657074696F6E3A200000C7
:1014100008B569468DF800000320ABBE08BD00008A
:101420004A494A6822F440324A604A6843681A438B
:101430004A6001684A6822F480724A6001684A681A
:10144000036942EA03224A6001684A6822F0407256
:101450004A6001684A6883681A434A6001688A687A
:1014600022F400628A6001688A68C3681A438A604D
:10147000816A6FF07062D14214D001688A6822F0EC
:1014800070628A6001688A68836A1A438A600168A8
:101490008A6822F040528A6001688A68C36A1A43E7
:1014A0008A6009E001688A6822F070628A600168D7
:1014B0008A6822F040528A6001688A6822F002023B
:1014C0008A6001688A68037E42EA43028A6090F873
:1014D000201089B101684A6842F400624A600168DC
:1014E0004A6822F460424A6001684A68436A5B1EA7
:1014F00042EA43324A6004E001684A6822F400622A
:101500004A600168CA6A22F47002CA620168CA6A43
:10151000838B5B1E42EA0352CA6201688A6822F426
:1015200000728A6001688A6890F8303042EA43228B
:101530008A6001688A6822F480628A6001688A6829
:10154000406942EA80208860704700000023014023
:1015500010B501221021024802F0A2FC10BD0000CB
:101560000000024010B500221021024802F098FC51
:1015700010BD00000000024010B5012211460248D3
:1015800002F08EFC10BD00000004024010B50022E5
:101590000121024802F084FC10BD0000000402405A
:1015A00010B50446FFF7DEFF922000F0A3F90622F3
:1015B0009549122000F07EF9FFF7CAFF9248407863
:1015C000000200B290490978084390490880084613
:1015D000B0F9000000EE100AB8EEC00A8C48D0ED59
:1015E000000A20EE200AD4ED080A20EE200A84ED3D
:1015F000000A8548C078000200B283498978084310
:10160000824908800846B0F9000000EE100AB8EEE2
:10161000C00A7F48D0ED000A20EE200AD4ED080A67
:1016200020EE200A84ED010A77484079000200B2DA
:10163000754909790843754908800846B0F90000E2
:1016400000EE100AB8EEC00A7148D0ED000A20EE94
:10165000200AD4ED080A20EE200A84ED020AFFF7E2
:1016600095FF08226849002000F024F9FFF784FF65
:10167000654800780F284FD166480078F0B362487B
:10168000C078000200B26049897808435F49088049
:1016900094ED090A0846B0F9000000EE900AF8EE51
:1016A000E00A5D4890ED001A10EE810A84ED030A0D
:1016B00055484079000200B253490979084353491B
:1016C000088094ED0A0A0846B0F9000000EE900A7E
:1016D000F8EEE00A504890ED001A10EE810A84ED11
:1016E000040A4948C079000200B247498979084391
:1016F0004649088094ED0B0A084600E00DE0B0F979
:10170000000000EE900AF8EEE00A434890ED001A5F
:1017100010EE810A84ED050A44E03B48C0780002DF
:1017200000B2394989780843384908800846B0F939
:10173000000000EE100AB8EEC00A3748D0ED000AEB
:1017400020EE200A84ED030A2F484079000200B2FF
:101750002D49097908432D4908800846B0F9000051
:1017600000EE100AB8EEC00A2B48D0ED000A20EEB9
:10177000200A84ED040A2448C079000200B22249FC
:1017800089790843214908800846B0F9000000EE35
:10179000100AB8EEC00A2048D0ED000A20EE200A58
:1017A00084ED050AFFF7DEFEA22000F0A3F8022276
:1017B0001549222000F07EF8FFF7CAFE1248007893
:1017C000C0001149497840EA611010490880084674
:1017D000B0F90000B0F5806F05DB08460088A0F581
:1017E000006000B208800948B0F9000000EE100A5D
:1017F000F8EEC00AB4EE001AB3EE070A00EE810A52
:1018000084ED070A10BD0000AE010020B6010020E3
:1018100070010020800100207401002070B5044692
:101820000D461C48046000201B4908700BF0E6FAC6
:10183000194909780843184908700BF095FB1649B7
:1018400009780843144908701DB1144800F0A6F93E
:101850001CE09FED130A114880ED090A9FED110A63
:1018600080ED0A0A9FED0F0A80ED0B0A9FED0E0A2C
:1018700080ED0C0A90ED0C0ADFED0C0A80EE801A68
:1018800080ED081A9FED0A0A80ED060A02480078EA
:1018900070BD0000B80100207A0100204020002027
:1018A000AC38223BB016CE393F161B41C3F51C4164
:1018B0000000204270B506460C46154646F08000F2
:1018C00000F018F806E0552000F014F82070641CB1
:1018D000681EC5B2002DF6D170BD70B504460D4628
:1018E00044F0800000F006F8552000F003F828705E
:1018F00070BD000001B582B04FF47A70012301AAD7
:1019000002A900900348006803F0CEFF9DF8040090
:101910000EBD0000B801002070B505460C462846F3
:10192000FFF7E8FF2046FFF7E5FF70BDD2ED020AA2
:1019300092ED021AB6EE000A00EEC10AD2ED030AD9
:1019400092ED031A00EEC10AD0ED000A20EE200A43
:10195000D2ED010A92ED021A60EE810A92ED001AB0
:10196000D2ED031A41EE610A90ED011A00EE810AF0
:10197000D2ED010A92ED031A60EE810A92ED001A8F
:10198000D2ED021A41EE210A90ED021A00EE810A10
:10199000F0EE000A20EE200A81ED000A92ED010A25
:1019A000D2ED020A20EE200AD2ED000A92ED031ACF
:1019B00000EE810AD0ED000A60EE200A92ED011AD5
:1019C000D2ED011AB6EE000A01EE610AD2ED031A59
:1019D00092ED032AB0EE401A01EEC21AD0ED011AC0
:1019E000B0EE600A01EE210AD2ED020A92ED031A6E
:1019F00060EE810A92ED001AD2ED011A41EE610A01
:101A000090ED021A00EE810AF0EE000A20EE200AA4
:101A100081ED010A92ED010AD2ED030A20EE200ABF
:101A2000D2ED000A92ED021A00EEC10AD0ED000AD2
:101A300020EE200AD2ED020A92ED031A60EE810A2E
:101A400092ED001AD2ED011A41EE210A90ED011A31
:101A500000EE810A92ED011AD2ED011AF6EE000AAB
:101A600041EE610A92ED021AD2ED021A41EE610ACC
:101A700090ED021A00EE810AF0EE000A20EE200A34
:101A800081ED020A704700BFFEE7000010B5024872
:101A900001F02DFA10BD0000A00D002010B5024885
:101AA00001F025FA10BD0000C80D0020F8B507466A
:101AB0000C4615461E464FF400700D490860002084
:101AC0008860C86008200861380A0A4908704F70A9
:101AD000200A8870CC70280A08714D71300A88710C
:101AE000CE716B460A460249034801F033F8F8BD4F
:101AF000B41D0020A8000020A00D0020F8B5074666
:101B00000C4615461E4640F2FF100D4908600020A5
:101B10008860C86008200861380A0A4908704F7058
:101B2000200A8870CC70280A08714D71300A8871BB
:101B3000CE716B460A460249034801F00BF8F8BD26
:101B40009C1D0020A0000020A00D0020F8B5074635
:101B50000C4615461E4640F2FF100D490860002055
:101B60008860C86008200861380A0A4908704F7008
:101B7000200A8870CC70280A08714D71300A88716B
:101B8000CE716B460A460249034800F0E3FFF8BDF8
:101B9000B41D0020A8000020C80D002070B52DED58
:101BA000048B88B0044600200690079000F0CCFB20
:101BB000FE4880ED000A00BF00F0C6FBFB48D0EDF8
:101BC000000A30EE600AF2EE040AB4EEE00AF1EE2A
:101BD00010FA14DD9FEDF60A84ED090A9FEDF50A6F
:101BE00084ED0A0A9FEDF30A84ED0B0A9FEDF20AD9
:101BF00084ED0C0A9FEDF10A84ED060A55E29FED93
:101C0000F00A00F05DFB9FEDEF0A84ED0C0A9FEDFA
:101C1000ED0A84ED090A9FEDEB0A84ED0A0A9FEDB7
:101C2000E90A84ED0B0A002673E1FFF79BFC922082
:101C3000FFF760FE062206A91220FFF73BFEFFF722
:101C400087FC9DF81900000200B29DF8181040EAC8
:101C5000010500EE105AB8EEC00ADB48D0ED000ACC
:101C600020EE200A84ED000A9DF81B00000200B25D
:101C70009DF81A1040EA010500EE105AB8EEC00AAD
:101C8000D148D0ED000A20EE200A84ED010A9DF82B
:101C90001D00000200B29DF81C1040EA010500EE94
:101CA000105AB8EEC00AC848D0ED000A20EE200A4B
:101CB00084ED020AD4ED000A60EEA00A94ED011A48
:101CC000D4ED011A41EE210A94ED021AD4ED021A64
:101CD00041EE210AB0EE600A0AF0CCFFB0EE408A75
:101CE00094ED0C0A30EE080A84ED0C0AFFF74EFC66
:101CF000082206A90020FFF7DDFDFFF73DFC9DF857
:101D000018000F2850D19DF81B00000200B29DF86A
:101D10001A1040EA010500EE105AB8EEC00AAB48AE
:101D2000D0ED000A20EE200A84ED030A94ED090AA2
:101D3000D4ED030A30EE200A84ED090A9DF81D0057
:101D4000000200B29DF81C1040EA010500EE105A96
:101D5000B8EEC00A9D48D0ED000A20EE200A84EDBE
:101D6000040A94ED0A0AD4ED040A30EE200A84ED48
:101D70000A0A9DF81F00000200B29DF81E1040EAFA
:101D8000010500EE105AB8EEC00A9048D0ED000AE6
:101D900020EE200A84ED050A94ED0B0AD4ED050A25
:101DA00030EE200A84ED0B0A06BBF0EE488AB0EE56
:101DB000489A002017E004F10C0101EB800191ED3D
:101DC000000A03A901EB800181ED000A04F10C0176
:101DD00001EB800191ED000A694601EB800181ED84
:101DE000000A411CC8B20328E5DB49E0B4EEE88AEA
:101DF000F1EE10FA01DDF0EE488AB4EEC98AF1EE98
:101E000010FA01D2B0EE489A002037E004F10C013C
:101E100001EB800191ED000A03A901EB8001D1EDF6
:101E2000000AB4EEE00AF1EE10FA0ADD04F10C014A
:101E300001EB800191ED000A03A901EB800181ED26
:101E4000000A04F10C0101EB800191ED000A6946E2
:101E500001EB8001D1ED000AB4EEE00AF1EE10FAD8
:101E60000AD204F10C0101EB800191ED000A6946F0
:101E700001EB800181ED000A411CC8B20328C5DBDB
:101E800038EEC90A524880ED000A002012E003A98A
:101E900001EB800191ED000A694601EB8001D1ED73
:101EA000000A30EE600A4B4901EB800181ED000A27
:101EB000411CC8B20328EADB454890ED000AF6EE63
:101EC000000AB4EEE00AF1EE10FA1BDC414890ED96
:101ED000000ADFED410AB4EEE00AF1EE10FA11DC7F
:101EE00090ED010ADFED3C0AB4EEE00AF1EE10FAE3
:101EF00008DC90ED020ADFED380AB4EEE00AF1EEFC
:101F000010FA00DD0AE09FED350A00F0D9F9701CE7
:101F100086B2334800888642FFF687AE00BFD4ED14
:101F20000C0A2F48008800EE100AB8EE400A80EE36
:101F3000801A84ED0C1A002015E004F1240101EB55
:101F40008001D1ED000A2649098800EE101AB8EE8A
:101F5000400A80EE801A04F1240101EB800181ED3A
:101F6000001A411CC8B20328E7DBFFF7FBFAA220E6
:101F7000FFF7C0FC022206A92220FFF79BFCFFF717
:101F8000E7FA9DF81800C0009DF8191040EA6115A5
:101F9000B5F5806F02DBA5F5006005B200EE105AC2
:101FA000F8EEC00AB4EE001A1CE00000A801002000
:101FB000AC38223BB016CE393F161B410000204200
:101FC0000AD7A33B0000000070010020740100202C
:101FD0007C010020342000209A99193E6F12033AA8
:101FE000AC010020B3EE070A00EE810A84ED060A78
:101FF00034480088401C00B232490880324890EDD5
:10200000000AF6EE000AB4EEE00AF1EE10FA3FF72D
:10201000D3AD94ED0C0ADFED2D0A30EE600AB0EE80
:10202000C00AF6EE000AB4EEE00AF1EE10FAEEDCB9
:10203000274890ED000A5FED180AB4EEE00AF1EED1
:1020400010FAE4DC90ED010A5FED1D0AB4EEE00A3F
:10205000F1EE10FADBDC90ED020A5FED210AB4EE3E
:10206000E00AF1EE10FAD2DC94ED090AB0EEC00AF3
:10207000DFED180AB4EEE00AF1EE10FAC7DC94EDD9
:102080000A0AB0EEC00ADFED130AB4EEE00AF1EE80
:1020900010FABCDC94ED0B0AB0EEC00ADFED0D0ABD
:1020A000B4EEE00AF1EE10FAB1DC00BF94ED0C0AD8
:1020B000DFED090A80EE801A84ED081A08B0BDEC45
:1020C000048B70BD820100207C010020CDCC1C411E
:1020D000342000200AD7233CC3F51C410148008B63
:1020E00070470000F71D00201B48406800F00060AA
:1020F00080B31A48406B00681949884205D94FF0EF
:10210000006017494C3908601CE01448406B0068B7
:102110001149B831884205D94FF000601049503953
:1021200008600FE00D48406B00680B495831884249
:1021300004D94FF000600849C86003E04FF0006028
:102140000549886005480068006840F4007003494C
:10215000096808607047000000600240440E0020DB
:102160005864024010B5024801F0DEFB10BD0000CB
:102170008814002010B5024801F0D6FB10BD000005
:10218000C813002010B5024801F0CEFB10BD0000BE
:10219000E814002010B5024801F0C6FB10BD000095
:1021A0006813002001680A4BCAB2103AA3FB02323E
:1021B0001209084B9B5CC365032A04D96FF309011C
:1021C000091D816502E06FF309018165806D70472B
:1021D000ABAAAAAA244C0108014600208A6A8B698E
:1021E000002B0FD0B3F5005F1DD08AB3012A30D089
:1021F000022A2ED0032A04D1C96A11F0807F00D0B0
:10220000012070471AB1012A07D0022AF9D1C96A00
:1022100011F0807FF5D001207047C96AB1F1C07F0D
:10222000FAD1012070475AB1012A0BD0022A07D0F7
:10223000032AF7D1C96AB1F1C07FF3D101207047F9
:1022400001207047C96A11F0807FFAD001207047E1
:10225000FFE70120704710B4D0F800C0DCF8004060
:1022600024F48024CCF80040D0F800C0CCF804302E
:102270008368402B05D0036899600068C26010BC79
:10228000704703689A600068C16010BC7047000026
:1022900008B50848406800900749009809688842D6
:1022A00004D206480068401C0449086002490098AE
:1022B000086008BD001000E0700000206C000020E5
:1022C0000C494868F0EE400A00BF0A494968091AFB
:1022D00001EE101AF8EE411A074991ED001AB8EE16
:1022E000411A20EE811AF4EEC11AF1EE10FAECD385
:1022F00070470000001000E06000002010B52DEDD8
:10230000028B82B004460E48406801902068019913
:10231000081A00EE100AF8EE400A0A4890ED000A8A
:10232000B8EE400A80EE801AB0EE418A0198206033
:10233000FFF7AEFFB0EE480A02B0BDEC028B10BD55
:10234000001000E06000002010B52DED028B00F0C1
:1023500059F80F4890ED000AB8EE400A808800EE68
:10236000900AF8EE600A9FED0B1A00EE810A084809
:10237000C08800EE900AF8EE600A9FED071A00EEA2
:10238000810AB0EE408AB0EE480ABDEC028B10BD67
:10239000580000206F12833ABD378635124909680C
:1023A00041F08071104A11600021104A51601146BD
:1023B000096841F0010111600D4941430D4A116066
:1023C000114609684FF47A72B1FBF2F10A4A1160C2
:1023D00008490968064AB1FBF2F1084A1160002178
:1023E000074A116070470000FCED00E0001000E0BB
:1023F00040420F00600000206400002068000020C0
:102400006C00002038B5294840680090FFF740FF75
:10241000274800684FF0FF31A0FB013100981818E1
:1024200041F10001234A03C22348002321490268E5
:1024300003C9FEF735FD214A03C220480CC81E48D7
:1024400000680024A2FB001503FB005002FB0402FD
:102450001848D0E90030591A60EB0200184AC2E966
:1024600000101648006817490860174800231449EF
:10247000026803C9FEF714FD124988800846808867
:102480001149096841430E48D0E90030591A60F1FA
:1024900000000E4AC2E900100D4800230B490268F3
:1024A00003C9FEF7FDFC0749C88038BD001000E0F5
:1024B0006C000020780000206000002080000020D8
:1024C00088000020580000206400002090000020B8
:1024D00068000020704710B5012001F0CDFB10BD51
:1024E00010B5082001F0C8FB10BD10B5102001F098
:1024F000C3FB10BD10B5202001F0BEFB10BDD2ED16
:10250000020A92ED021AB6EE000A00EEC10AD2EDFE
:10251000030A92ED031A00EEC10AD0ED000A20EE84
:10252000200AD2ED010A92ED021A60EE810A92EDC4
:10253000001AD2ED031A41EE210A90ED011A00EEC5
:10254000810AD2ED010A92ED031A60EE810A92ED42
:10255000001AD2ED021A41EE610A90ED021A00EE65
:10256000810AF0EE000A20EE200A81ED000A92EDC9
:10257000010AD2ED020A20EE200AD2ED000A92ED05
:10258000031A00EEC10AD0ED000A60EE200A92EDB7
:10259000011AD2ED011AB6EE000A01EE610AD2ED7F
:1025A000031A92ED032AB0EE401A01EEC21AD0EDE2
:1025B000011AB0EE600A01EE210AD2ED020A92ED94
:1025C000031A60EE810A92ED001AD2ED011A41EE73
:1025D000210A90ED021A00EE810AF0EE000A20EEC8
:1025E000200A81ED010A92ED010AD2ED030A20EEE4
:1025F000200AD2ED000A92ED021A00EE810AD0ED17
:10260000000A20EE200AD2ED020A92ED031A60EED3
:10261000810A92ED001AD2ED011A41EE610A90EDA5
:10262000011A00EE810A92ED011AD2ED011AF6EEBE
:10263000000A41EE610A92ED021AD2ED021A41EE51
:10264000610A90ED021A00EE810AF0EE000A20EE17
:10265000200A81ED020A70477047000010B52DED89
:10266000028B9FED140AB0EE408A04F00BFA0F289B
:1026700004D19FED110AB0EE408A15E004F002FA91
:10268000122804D19FED0D0AB0EE408A0CE004F050
:10269000F9F91E2804D19FED0A0AB0EE408A03E042
:1026A0009FED050AB0EE408AB0EE480ABDEC028B01
:1026B00010BD00000000000000A08C4500C0A8452F
:1026C00000E0F64538B44FF0000CCDF800C090F8AB
:1026D0003C20012A1BD0012280F83C200A680724F4
:1026E000092A17D90368DD680A3A02EB420204FAA4
:1026F00002F225EA0202DA600A788B680A3A02EBF3
:10270000420293400268D4682343D36014E038BC8B
:102710000220704703681D6902EB420204FA02F2CC
:1027200025EA02021A610A788B6802EB42029340A2
:1027300002681469234313614A681F24072A15D2CB
:1027400003685D6B521E02EB820204FA02F225EA74
:1027500002025A630A8893B20A79521E02EB82027D
:1027600093400268546B234353632CE00D2A15D227
:1027700003681D6BD21F02EB820204FA02F225EA03
:1027800002021A630A8893B20A79D21F02EB82020C
:1027900093400268146B2343136314E00368DD6AFB
:1027A0000D3A02EB820204FA02F225EA0202DA6230
:1027B0000A8893B20A790D3A02EB820293400268CA
:1027C000D46A2343D362184A184B04689C4206D14A
:1027D0000C68122C03D1546844F4800454600468DB
:1027E0009C421CD10B68102B01D0112B17D15368C0
:1027F00043F4000353600968102910D10C490D4AB5
:102800000968B1FBF2F101EB8101490000910099E7
:1028100029B10099491E009100990029F9D180F849
:102820003CC038BC0020704700230140002001401C
:102830003C00002040420F000068C06C704770B53B
:1028400004460025002C03D0206C002610B107E0C0
:10285000012070BD204600F01DF8666484F83C60DD
:10286000206C10F0100F04D0012584F83C6028463D
:1028700070BD206C20F4885040F002002064204697
:10288000FEF7CEFD6664206C20F0020040F00100EF
:102890002064EAE710B586B00446142101A8FEF7CB
:1028A00017FC2349206888420FD100BF0020009008
:1028B0002048006840F480701E490860084600689F
:1028C00000F48070009000BF2FE01B492068884210
:1028D0002BD100BF002000901648006840F48060B3
:1028E000144908600846006800F48060009000BF4A
:1028F00000BF00BF002000900E481438006840F070
:1029000020000C49143908600846006800F02000D7
:10291000009000BF00BF0815019003200290002026
:10292000039001A9054801F0B3F906B010BD0000FD
:1029300000200140443802400022014000140240BF
:102940002DE9F04104460D46206881684FF00007EC
:1029500011F4806F0CD0806810F4807F08D0206C58
:1029600040F02000206484F83C700120BDE8F08134
:1029700001F09EFA06462068006810F0020F12D19E
:10298000B5F1FF3F0AD025B101F092FA801BA842B1
:1029900004D92068006810F0020F12D02068006887
:1029A00010F0020FECD021686FF012000860206C6C
:1029B00040F4007020642068816811F0405F09D005
:1029C0001EE0206C40F00400206484F83C7003207A
:1029D000BDE8F081217E99B9C16A11F4700F03D06E
:1029E000806810F4806F0BD1206C20F4807020641C
:1029F000206C10F4805F03D1206C40F00100206453
:102A00000020BDE8F081000081B00022009290F823
:102A10003C10012908D0012180F83C1001688B6826
:102A200013F0010F03D016E0022001B070478B684D
:102A300043F001038B603949394B0968B1FBF3F16D
:102A400001EB41010091009929B10099491E0091C3
:102A500000990029F9D101688B6813F0010F52D059
:102A6000036C23F0010323F4C06343F48073036415
:102A70004B6813F4806F05D0036C23F4005343F4C8
:102A800080530364036C13F4805F04D0436C23F021
:102A90000603436400E0426480F83C20214A6FF062
:102AA00022030B60516811F01F0F1F4907D0006807
:102AB000884230D1816811F0405F1FD02BE0006860
:102AC000884212D0194A904204D1D1F8042312F05E
:102AD0001F0F0AD0A0F18042B2F591321BD1D1F87C
:102AE000041301F01F01102915D2816811F0405F15
:102AF00011D1816841F0804181600CE0816841F032
:102B00008041816007E0016C41F010010164416C7B
:102B100041F001014164002001B070473C000020F9
:102B200040420F00002301400020014000210140ED
:102B300090F82020012A07D0022A05D0416A41F4EA
:102B40008021416201207047006842691143416160
:102B50000020704770B490F82040D0F800C0DCF836
:102B600008C0012C08D0022C06D0416A41F4802113
:102B7000416270BC012070470CF080640CF000656D
:102B80002C430CF080552C435FD0CCF3016CBCF18E
:102B9000020F06D9416A41F40001416270BC012074
:102BA0007047012404FA0CF41C608B684FF4C07465
:102BB0009BB1CD6804EB0C162B434D6843EAC5036B
:102BC0000568AB514FF4C273066803EB0C130D6933
:102BD000F550097D012909D00DE00D88CB6804EB83
:102BE0000C1643EA45530568AB51EBE70168CD5835
:102BF00045F48075CD501179D379557941EA036157
:102C000093791B0443EA052319434FF4C6750368FF
:102C100005EB0C1559511178D37841EA036193788B
:102C200052781B0443EA022211434FF4C473026832
:102C300003EB0C13D150006804EB0C11425842F026
:102C40000102425070BC00207047416A41F40011FB
:102C5000416270BC0120704790F82020012A07D003
:102C6000022A05D0416A41F4802141620120704767
:102C70004248D0F8002242F00102C0F80022D0F809
:102C8000002222F47C52C0F80022D0F800224B6AC5
:102C900042EA0322C0F800220A7D012302F01F024B
:102CA00003FA02F2D0F81C329343C0F81C32CB690D
:102CB000D3B9D0F80C329343C0F80C32B1F80CC041
:102CC0004B686CF31F43D1F814C000EBCC0CCCF86C
:102CD0004032B1F808C00B686CF31F43D1F814C040
:102CE00000EBCC0CCCF84432CB69012B1AD1D0F8D4
:102CF0000C321343C0F80C32B1F800C04B686CF3CF
:102D00001F43D1F814C000EBCC0CCCF84032B1F822
:102D100008C0CB686CF31F43D1F814C000EBCC0C97
:102D2000CCF844328B697BB1D0F804321343C0F83D
:102D300004320B6973B1D0F814321343C0F8143263
:102D4000096A01290CD010E0D0F804329343C0F88E
:102D50000432EEE7D0F814329343C0F81432EFE7B0
:102D6000D0F81C121143C0F81C12D0F8001221F048
:102D70000101C0F80012002070470000006400400C
:102D8000704710B490F820C0BCF1010F09D0BCF11D
:102D9000020F06D0416A41F48021416210BC01203B
:102DA000704739B1D0F800C0DCF810C01CF0030F38
:102DB0007DD006E0D0F800C0DCF80CC01CF0030F9A
:102DC0007BD04FF4D87C04680CEB011C54F80C4009
:102DD00004F004049460002C7DD0046854F80C4086
:102DE000E4085460046854F80CC00CF0020CC2F8FB
:102DF0000CC04FF4DA7C04680CEB011C54F80C4056
:102E000004F00F041461046854F80C40C4F3072460
:102E10009461046854F80CC04FEA1C4CC2F814C00A
:102E20004FF4DC72D0F800C002EB01125CF802C073
:102E300083F800C0D0F800C05CF802C04FEA1C2C38
:102E400083F801C0D0F800C05CF802C04FEA1C4C07
:102E500083F802C0D0F800C05CF80220120EDA70CD
:102E60004FF4DE72D0F800C002EB01125CF802C031
:102E700083F804C0D0F800C05CF802C04FEA1C2CF4
:102E800083F805C0D0F800C05CF802C04FEA1C4CC3
:102E900083F806C0D0F800C05CF80220120EDA7188
:102EA000F9B10068016941F02001016102E00BE025
:102EB00003E010E010BC00207047416A41F40011AB
:102EC000416210BC01207047416A41F40011416227
:102ED00010BC01207047046854F80C40640D146065
:102EE00080E70068C16841F02001C160DEE72DE99C
:102EF000F05F0546002428684669D0F8049087688A
:102F0000D0F80CA0D0F810B0D0F8188016F0010F4F
:102F100054D017F0010F17D00121816017F0020F74
:102F200003D0284600F06AFC0EE017F0040F02D030
:102F30004FF4006408E017F0080F02D04FF48054FB
:102F400002E0284600F059FC17F4807F19D0296868
:102F50004FF48070886017F4007F03D0284600F09B
:102F60004FFC0EE017F4806F02D044F4005408E0E8
:102F700017F4006F02D044F4804402E0284600F0C9
:102F80003EFC17F4803F19D029684FF480308860E8
:102F900017F4003F03D0284600F034FC0EE017F48D
:102FA000802F02D044F4004408E017F4002F02D030
:102FB00044F4803402E0284600F023FC16F0080FA9
:102FC00007D01AF0100F04D044F4007429681020C0
:102FD000C86016F0040F4FF0080707D01AF0080F6A
:102FE00004D02868C760284600F000FA16F0020FE7
:102FF00007D02868C06810F0030F02D0284600F000
:10300000F7F916F0400F07D01BF0100F04D044F46E
:10301000806429681020086116F0200F07D01BF08B
:10302000080F04D028680761284600F0B1FB16F0AD
:10303000100F07D02868006910F0030F02D028464F
:1030400000F0A7FB16F4003F08D019F0100F05D0D0
:10305000296810204860284600F09CFB16F4803F49
:1030600007D019F0080F04D028684760284600F000
:10307000CAFB16F4004F4AD019F0040F44D016F4DE
:10308000807F04D018F0010F01D044F0010416F441
:10309000007F04D018F0020F01D044F0020416F4AF
:1030A000806F04D018F0040F01D044F0040416F42B
:1030B000006F29D018F0700F26D008F0700040285B
:1030C00015D006DC102809D020280AD0302816D1C7
:1030D0000AE050280ED0602811D10EE044F0080418
:1030E0000DE044F010040AE044F0200407E044F04E
:1030F000400404E044F0800401E044F48074286853
:10310000816921F070018161296804204860002CE8
:1031100005D0686A204368622846FFF731FEBDE8A3
:10312000F09F70B50446002C03D094F8200010B135
:1031300004E0012070BD204600F0A8F82068016876
:1031400041F00101016000F0B3FE054620684068CF
:103150004FF0050610F0010F11D100F0A9FE401B41
:103160000A2807D9606A40F40030606284F8206061
:10317000012070BD2068406810F0010FEDD020687C
:10318000016821F00201016000F092FE054620680E
:10319000406810F0020F11D000F08AFE401B0A2890
:1031A00007D9606A40F40030606284F82060012032
:1031B00070BD2068406810F0020FEDD1207E01281C
:1031C0003FD02068016821F080010160607E012805
:1031D0003DD02068016821F040010160A07E0128F7
:1031E0003BD02068016821F020010160E07E0128C9
:1031F00039D02068016841F010010160207F01286A
:1032000037D02068016821F008010160607F012843
:1032100035D02068016821F004010160E168A068F0
:10322000626908432169114308436168491E0843E4
:103230002168C86100206062012084F8200000201D
:1032400070BD2068016841F080010160BEE7206820
:10325000016841F040010160C0E72068016841F069
:1032600020010160C2E72068016821F010010160BF
:10327000C4E72068016841F008010160C6E72068E2
:10328000016841F004010160C8E7000010B586B094
:103290000446142101A8FDF71BFF4E49206888420F
:1032A00041D14D480068401C4B4908600846006801
:1032B00001280FD100BF002000904848006840F06E
:1032C0000070464908600846006800F000700090F1
:1032D00000BF00BF00BF00200090404810380068C9
:1032E00040F008003D49103908600846006800F0C9
:1032F0000800009000BF00BF032001900220029050
:1033000000200390032004900920059001A934486F
:1033100000F0BEFC00220621142001F025F8142044
:1033200001F014F854E02F492068884250D100BFC2
:10333000002000902948006840F08060274908601C
:103340000846006800F08060009000BF00BF22487F
:103350000068401C204908600846006801280FD119
:1033600000BF002000901D48006840F000701B491D
:1033700008600846006800F00070009000BF00BFC1
:1033800000BF0020009015481038006840F002008F
:103390001249103908600846006800F002000090E9
:1033A00000BF00BF60200190022002900020039027
:1033B000032004900920059001A90B4800F068FC47
:1033C00000220621402000F0CFFF402000F0BEFF89
:1033D00006B010BD006400403000002040380240BC
:1033E000000C0240006800400004024070470000EA
:1033F00010B58AB0044601AB03AA00212046FFF7AE
:10340000C0FCDD492068884278D10398A0F20120F1
:10341000072874D2DFE800F0040506070809B800A1
:1034200000BF00BF00BF00BF00BF0398401ED349CC
:1034300008700846007800EB8000D14931F8200080
:1034400000B2CE49097801EB8101CD4A02EB81013E
:1034500008819DF805009DF8041040EA0120C74945
:10346000097801EB810122F821009DF807009DF801
:10347000061040EA012000B2C049097801EB810141
:1034800002EB810148809DF809009DF8081040EA90
:10349000012000B2B949097801EB810102EB8101F9
:1034A00088809DF80A00B549097801EB810102EB9B
:1034B00081018871B148007800EB8000114631F835
:1034C0002000AE49097801EB810102EB8101B1F9DD
:1034D0000810401AB0F5805F12DDA848007800EBB4
:1034E0008000114601EB80000069401EA349097865
:1034F00001EB810102EB8101086125E05AE057E010
:103500009E48007800EB80009D4931F820009B49DF
:10351000097801EB81019A4A02EB8101B1F90810A7
:10352000401A10F5805F0FDA9448007800EB8000B5
:10353000114601EB80000069401C9049097801EBBD
:10354000810102EB810108618C48007800EB80006A
:103550008B4931F820108948007800EB8000884AB8
:1035600002EB80000069401C01EB40308349097880
:1035700001EB810102EB8101C86080490978491C97
:10358000C8B20BF083FA14E09DF804007D4908707E
:103590009DF8050048709DF8070008709DF8080028
:1035A0004870084690ED000A774880ED000A00E078
:1035B00000BFDFE00398A0F2052000287AD00128A0
:1035C00002D0022877D146E07048008800B26F49E7
:1035D00008819DF805009DF8041040EA01206B4920
:1035E00008809DF807009DF8061040EA012000B20F
:1035F000664948809DF809009DF8081040EA0120BE
:1036000000B2624988809DF80A00887108460088E7
:10361000B1F90810401AB0F5805F05DD5B4800691C
:10362000401E5A4908610DE0584800885749B1F9D1
:103630000810401A10F5805F04DA54480069401CF5
:1036400052490861514801880069401C01EB403033
:103650004E49C8608DE04D48808A01B24B48818355
:103660009DF805009DF8041040EA01204749888232
:103670009DF807009DF8061040EA012001B243487A
:10368000C1829DF809009DF8081040EA012001B2AE
:103690003E4801839DF80A108176818AB0F91C00AA
:1036A000081AB0F5805F07DD3848406A401E374988
:1036B00048620EE016E05BE03448818AB0F91C00F5
:1036C000081A10F5805F04DA3048406A401C2F4920
:1036D00048622E48818A406A401C01EB40312B48E9
:1036E000016246E02948008D01B2284801869DF814
:1036F00005009DF8041040EA0120244908859DF842
:1037000007009DF8061040EA012001B21F484185DC
:103710009DF809009DF8081040EA012001B21B48FD
:1037200081859DF80A1080F82E10018DB0F93000C7
:10373000081AB0F5805F05DD1448806B401E134900
:1037400088630CE01148018DB0F93000081A10F5BB
:10375000805F04DA0D48806B401C0C4988630B487D
:10376000018D806B401C01EB40310848416300E053
:1037700000BF00BF0AB010BD00640040B0000020D0
:10378000E81C00209C00002098000020601D002004
:1037900070477047704770B5044694F820000128C0
:1037A00005D0606A40F400206062012070BD0220F4
:1037B00084F820002068016821F00101016000F018
:1037C00077FB05462068406810F0010F12D000F02A
:1037D0006FFB401B0A2808D9606A40F40030606221
:1037E000052084F82000012070BD2068406810F09A
:1037F000010FECD10020606270BD704770477047C8
:10380000704770477047704710B50446002C02D0CF
:10381000607910B106E0012010BD00202071204623
:1038200000F004F801206071002010BD08B50A4ABC
:10383000016891420FD100BF00210091074909683A
:1038400041F48051054A11601146096801F4805124
:10385000009100BF00BF08BD003002403038024078
:103860002DE9F0410446A66D00F022FB054694F8D0
:1038700035000027022806D08020606584F8347067
:103880000120BDE8F0812068016821F01601016087
:103890002068416921F080014161206C08B9A06C69
:1038A00020B12068016821F00801016020680168EA
:1038B00021F0010101602068006810F0010F12D0B2
:1038C00000F0F6FA401B052808D920206065032087
:1038D00084F8350084F83470BDE8F0812068006811
:1038E00010F0010FECD194F85C003F2101FA00F0D8
:1038F000B060012084F8350084F834700020BDE801
:10390000F08190F83510022903D080214165012013
:103910007047052180F835100068016821F0010129
:1039200001600020704700002DE9F84304464FF085
:103930000008CDF8008076484FF416510068B0FBBF
:10394000F1F7A56D2E6894F85C00082101FA00F0EB
:10395000304211D02068026812F0040F0CD00268C7
:1039600022F00402026094F85C0001FA00F0A86002
:10397000606D40F00100606594F85C004FF0010953
:1039800009FA00F0304209D02168496911F0800F2E
:1039900004D0A860606D40F00200606594F85C108F
:1039A00004208840304209D02168096811F0020FD4
:1039B00004D0A860606D40F00400606594F85C106D
:1039C00010208840304224D02168096811F0080F87
:1039D0001FD0A8602068016811F4802F0DD0006806
:1039E00010F4002F04D0A16C99B12046884710E054
:1039F000216C71B1204688470BE0016811F4807F8B
:103A000003D1016821F008010160216C09B1204651
:103A1000884794F85C1020208840304251D02168BB
:103A2000096811F0100F4CD0A86094F835000528F3
:103A30000DD02068016811F4802F32D0006810F496
:103A4000002F29D0E16B59B32046884739E0206820
:103A5000016821F0160101602068416921F08001B0
:103A60004161206C08B9A06C20B12068016821F088
:103A70000801016094F85C003F2101FA00F0A860A1
:103A800084F8359084F83480216D00293ED001B04F
:103A90002046BDE8F0430847616C09B120468847DD
:103AA0000FE0016811F4807F07D1016821F0100157
:103AB000016084F8359084F83480E16B09B12046C8
:103AC0008847606D002821D0606D10F0010F15D07F
:103AD000052084F835002068016821F001010160AB
:103AE0000098401C0090B84204D82068006810F08C
:103AF000010FF5D184F8359084F83480E16C002909
:103B000004D001B02046BDE8F0430847BDE8F88383
:103B10003C0000202DE9F041044600F0C9F90546BB
:103B2000DCB1022084F83500002684F83460206877
:103B3000016821F0010101602068006810F0010FA8
:103B400013D000F0B5F9401B052809D92020606585
:103B5000032084F83500BDE8F0810120BDE8F08144
:103B60002068006810F0010FEBD121680868234A33
:103B70001040A3686268D4F810C01A43E36843EAAF
:103B80000C031A4363691A43A3691A43E3691A438E
:103B9000236A1A431043626A042A03D1236BE26A40
:103BA0001A43104308602068406920F00701606AEA
:103BB00040EA0105012704280ED1A06A0543E06A06
:103BC00050B12046FEF708FB30B14020606584F814
:103BD00035700120BDE8F081206845612046FEF780
:103BE000E1FA94F85C103F2202FA01F18160666507
:103BF00084F835700020BDE8F08100003F8010F0AF
:103C000070B50446002594F8340001280DD0012039
:103C100084F8340094F835C00020BCF1010F06D0C0
:103C200084F834000225284670BD022070BD4FF094
:103C3000020C84F835C060652046FEF70CFB206856
:103C4000016841F001010160EDE7000070B5044634
:103C500000F02EF90546B4F1FF3F02D00448007889
:103C6000044400F025F9401BA042FAD370BD0000C7
:103C7000DC0500207047000010B504490A680242C4
:103C800002D00860FFF7F6FF10BD0000143C0140B1
:103C90002DE9F84F0022DFF8FCA1DFF8F4914FF096
:103CA000010E03274FF00F08AAF1040B0EFA02FCD5
:103CB0000B6803EA0C0363457ED10C7904F003041E
:103CC000012C01D0022C14D18568540007FA04F6A7
:103CD000B543CE6806FA04F42C438460446824EAB1
:103CE0000C0C0C79C4F30014944044EA0C0CC0F89A
:103CF00004C0D1F804C037EA0C0C0CD0C4684FEAF9
:103D0000420C07FA0CF5AC438D6805FA0CFC4CEA42
:103D1000040CC0F80CC091F804C00CF0030CBCF10A
:103D2000020F12D14FEAD20C00EB8C04256A4FEA45
:103D3000427C4FEADC6C08FA0CF6B5430E6906FAD1
:103D40000CFC4CEA050CC4F820C004684FEA420C95
:103D500007FA0CF5AC430D7905F0030505FA0CFCE8
:103D60004CEA040CC0F800C0D1F804C01CF4403F79
:103D70006FD0D9F800C04CF4804CC9F800C0D9F815
:103D800000C00CF4804CCDF800C022F0030C0CF104
:103D9000804505F59835D5F808C89407240F08FA2A
:103DA00004F62CEA0606A0F1804CBCF5003C56D087
:103DB000BCF5806C56D000E04BE0BCF5806C54D074
:103DC000BCF5806C54D0BCF5806C54D0BCF5806CD4
:103DD00054D0BCF5806C54D0BCF5806C54D04FF0FE
:103DE000080C0CFA04FC4CEA060CC5F808C8DAF812
:103DF00000C02CEA030C4C6814F4801F01D04CEA7C
:103E0000030CCAF800C0244CD4F800C02CEA030C00
:103E10004D6815F4001F01D04CEA030CC4F800C033
:103E2000DBF800C02CEA030C4C6814F4003F01D00E
:103E30004CEA030CCBF800C0184CD4F800C02CEAB4
:103E4000030C4D6815F4803F01D04CEA030CC4F814
:103E500000C0521C102AFFF429AFBDE8F88F4FF0C4
:103E6000000CBEE74FF0010CBBE74FF0020CB8E7C7
:103E70004FF0030CB5E74FF0040CB2E74FF0050C20
:103E8000AFE74FF0060CACE74FF0070CA9E70000D6
:103E900044380240083C01400C3C0140003C0140D9
:103EA000002A01D0816170470904816170470000D8
:103EB0000148806870470000DC05002070B50446AA
:103EC000002C04D094F83D00002510B106E001203C
:103ED00070BD84F83C50204600F0C6F8242084F8D9
:103EE0003D002068016821F001010160206801683F
:103EF00041F4004101602068016821F40041016043
:103F000001F036F8544B6168994203D8534988420E
:103F100003D304E05249884201D2012070BD5149C7
:103F2000B0FBF1F12268D2F804C02CF03F0C4CEA4F
:103F3000010CC2F804C062689A4201D84A1C07E02A
:103F40004FF4967251434FF47A72B1FBF2F14A1C6E
:103F50002168D1F820C02CF03F0C42EA0C020A6222
:103F60006168994210D84900401EB0FBF1F2521C22
:103F7000C2F30B02042A01D2042026E0B0FBF1F0C8
:103F8000401CC0F30B0020E0A268002A50D001EBD7
:103F9000C10303EB0113A0F1010CBCFBF3F35B1CA9
:103FA00043F480431B051B0D4AD0002A4AD001EB85
:103FB000C10202EB0111401EB0FBF1F0401CC0F346
:103FC0000B0040F4804040F400402168CA6922F0B0
:103FD000FF0222F44F421043C861216AE0690143A5
:103FE0002068026822F0C00211430160E168206984
:103FF00001432068826822F0FF0222F40342114349
:104000008160A169606901432068C26822F0FF02F3
:104010001143C1602068016841F00101016025641D
:10402000202084F83D00256384F83E50002070BDB8
:1040300001EB4103A0F1010CBCFBF3F35B1CB1E706
:104040000120C2E701EB4101401EB0FBF1F0401C32
:10405000C0F30B00B7E70000A086010080841E00BB
:1040600000093D0040420F0010B586B004461421FF
:1040700001A8FDF72DF873492068884230D100BFB0
:10408000002000907048006840F002006E4908600F
:104090000846006800F00200009000BF00BF4FF427
:1040A00040700190122002900120039003200490A0
:1040B0000420059001A96548FFF7EAFD00BF002034
:1040C000009061481030006840F400105E491031E3
:1040D00008600846006800F40010009000BFAFE0E0
:1040E0005B492068884259D100BF002000905648A3
:1040F000006840F02000544908600846006800F05D
:104100002000009000BF00BF032001901220029009
:1041100001200390032004900420059001A94D483C
:10412000FFF7B6FD00BF0020009047481030006840
:1041300040F480004449103108600846006800F4EB
:104140008000009000BF00BF4348444908604FF022
:10415000606048604021414881600021C1604FF4A7
:1041600080610161002141618161C1614FF40031D1
:10417000016200214162FFF7CDFC08B1FEF76CFA45
:1041800000BF36486063846300BF354800684068FC
:1041900040F4006032490968486051E031492068C4
:1041A00088424DD100BF002000902748006840F0B1
:1041B0000400254908600846006800F004000090EB
:1041C00000BF00BF00BF002000900846006840F01C
:1041D000010008600846006800F00100009000BF80
:1041E00000BF481501901220029001200390032087
:1041F00004900420059001A91B48FFF749FD4FF4E6
:1042000080700190122002900120039003200490FE
:104210000420059001A91548FFF73AFD00BF0020D2
:10422000009009481030006840F400000649103141
:1042300008600846006800F40000009000BF00BF5E
:1042400006B010BD00540040303802400004024067
:104250000058004000140240B8600240EC0E0020FC
:10426000440E0020005C00400008024000000240B4
:10427000024881680278114481607047DC050020A3
:1042800010B50B48016841F400710160016841F408
:1042900080610160016841F480710160032000F0D9
:1042A00097F80F2000F006F800F026F8002010BD67
:1042B000003C024070B504460D4D4FF47A712878E9
:1042C000B1FBF0F00B490968B1FBF0F001F0E8FB3D
:1042D00008B1012070BD102C07D200222146501ECB
:1042E00000F042F86C60002070BD012070BD00003D
:1042F000DC0500203C00002008B500BF0020009035
:104300001148006840F480400F4908600846006882
:1043100000F48040009000BF00BF00BF002000906C
:10432000081F006840F08050091F086008460068B8
:1043300000F08050009000BF00BF00220F21901EAF
:1043400000F012F808BD00004438024000280ADBE3
:1043500000F01F01012202FA01F14009800000F182
:10436000E020C0F80011704710B4184B1B68C3F36D
:104370000223C3F1070CBCF1040F01D94FF0040C68
:104380001C1D072C01D2002300E0DB1E012404FACF
:104390000CFCACF1010C0CEA0101994004FA03F3A6
:1043A0005B1E1A401143002806DB00F1E0200901E2
:1043B00080F8001410BC704700F00F0000F1E020FE
:1043C000090180F8141D10BC704700000CED00E0DE
:1043D00000F00700064A11684FF6FF03194041EA52
:1043E000002040F0FD7040F08060106070470000D9
:1043F0000CED00E0704710B50446D4F8080507F04E
:10440000F3F910BD70B504460D4605EBC50304F184
:104410003C0101EB83010A692946D4F8080507F03D
:104420000DF970BD70B504460D4605EBC50304F5E6
:104430001F7101EB83010A692946D4F8080507F0CA
:104440006BF970BD10B50446D4F8080507F0CEF935
:1044500010BD11F0800F01F00F0101EBC10100EB65
:10446000810101D03C3101E001F51F71006808F0C5
:1044700004B870B5044601F00F026068824201D9A9
:10448000012070BD01F00F0000EBC00011F0800FA3
:1044900004EB80004FF001034FF0000503D000F162
:1044A0003C014B7002E000F51F714D708D700A7079
:1044B00094F8BC04012808D084F8BC34206807F0C4
:1044C0006BFE84F8BC54002070BD022070BD70B536
:1044D000044611F0800F01F00F0000EBC00104EB67
:1044E00081014FF0010C4FF0000503D03C3181F801
:1044F00001C002E001F51F714D700870CA600B71B8
:104500004A7802B10881022B00D14D7194F8BC04A5
:10451000012808D084F8BCC4206807F019FD28469B
:1045200084F8BC5470BD022070BD10B50C4604F078
:104530000F0C0CEBCC0100EB810101F51F710A613E
:104540008B6100230B624B7081F800C00369012B63
:1045500000D14A6114F00F0F05D0027C006807F00B
:1045600076FE002010BD027C006807F04DFDF8E7E4
:1045700070B504460D46616805F00F00884201D908
:10458000012070BD15F0800F4FF000064FF00102C2
:1045900006D000EBC00104EB81013C314A7006E01B
:1045A00005EBC50104EB810101F51F714E708A70A6
:1045B000087094F8BC04012808D084F8BC24206852
:1045C00007F016FE15F00F0F02D007E0022070BDB5
:1045D000217C04F2C442206807F0AEFD84F8BC647C
:1045E000002070BD10B50C4604F00F0C0CEBCC0194
:1045F00000EB81013C310A618B6100230B620123D6
:104600004B7081F800C00369012B00D14A6114F09E
:104610000F0F05D0027C006807F019FE002010BDC6
:10462000027C006807F0F0FCF8E72DE9F05F044633
:104630002568284607F0B8FF00287ED1206807F0DB
:10464000DFFF002879D0D5F80808C0F30D20C4F8A2
:10465000FC04206807F0D4FF10F0020F04D020689B
:10466000416901F002014161206807F0C9FF10F0C3
:10467000100F36D02068816921F0100181612F6A06
:1046800007F00F0000EBC00004EB800000F51F7680
:10469000C7F34340022802D0062812D01CE047F698
:1046A000F070074218D0C7F30A121746284631693E
:1046B00007F0AAFF306938443061306A384430620C
:1046C0000AE0082204F2C441284607F09DFF306A40
:1046D000C7F30A11084430622068816941F0100173
:1046E0008161206807F08CFF10F4002F4FF0100B51
:1046F0004FF0000A4FF0010967D00026206807F04C
:104700005EFF80465FEA08005FD018F0010F56D0C8
:10471000F1B2206807F06CFF074617F0010F07D0D1
:1047200005EB4610C0F8089B3146204605F0F2FB29
:1047300017F0080F0AD0082000E01FE205EB461131
:10474000C1F8080B3146204605F0C0FB17F0100FEA
:1047500003D005EB4610C0F808BB17F0020F1DD0C0
:10476000686910F0800F05D0D5F8040840F4806126
:10477000C5F8041806EBC60004EB800000F51F70B6
:10478000C178012905D180F803A0F1B2204600F0DC
:1047900007FA05EB46110220C1F8080B17F0200FAD
:1047A00004D005EB46112020C1F8080B17F4005F78
:1047B00005D005EB46114FF40050C1F8080B761CEC
:1047C0004FEA5808B8F1000F9FD1206807F018FF92
:1047D00010F4802F74D0206807F0EAFE0746002608
:1047E000002F6DD04FF0020B17F0010F64D0F1B223
:1047F000206807F0EBFE804618F0010F24D006F089
:104800000F0009FA00F0D5F834188143C5F83418C0
:1048100005EB4610C0F808992069012810D106EB75
:10482000C60004EB8000826CC16C1144C1643EB9C7
:10483000606D28B904F2C4420121206807F07CFCB5
:10484000F1B22046FFF7DEFD18F0080F04D005EBAB
:1048500046110820C1F8080918F0100F04D005EB24
:1048600046111020C1F8080918F0400F04D005EBDC
:1048700046114020C1F8080918F0020F15D0314642
:10488000284607F055FE06EBC60004EB80003C30DE
:10489000C178012905D180F803A0F1B2204600F0CB
:1048A00076F905EB4610C0F808B918F0800F03D070
:1048B0003146204605F0A2FB761C7F08002F93D1DD
:1048C000206807F09DFE10F0004F11D0D5F80408C5
:1048D00020F00101C5F8041894F8F404012861D00F
:1048E000204600F07EF92068416901F000414161F5
:1048F000206807F085FE10F4006F0CD0D5F808088A
:1049000010F0010F02D0204600F096F920684169AE
:1049100001F400614161206807F072FE10F4805FCD
:1049200065D0D5F8040820F00101C5F8041810215D
:10493000206807F0FDFD0021606800281DD94FF6B2
:104940007F3205EB4110C0F80829D0F8003923F474
:104950000013C0F80039C0F8082BD0F8003B23F44E
:104960000013C0F8003BD0F8003B43F00063C0F8F0
:10497000003B491C60688842E3D8D5F81C0840F029
:104980000111C5F81C18206B98B1D5F8840840F0C7
:104990000B01C5F88418D5F8440840F00B01C5F8A0
:1049A000441813E084F8F4A400212046FFF722FD08
:1049B00099E7D5F8140842F22B010143C5F8141801
:1049C000D5F8100840F00B01C5F81018D5F800080C
:1049D00020F4FE61C5F80018217C04F2C44220686E
:1049E00007F0AAFB2068416901F480514161206809
:1049F00007F006FE10F4005F16D0206807F0F6FA04
:104A0000206807F0C1FDE06000F0ACFA23680146C1
:104A1000227B184607F02EFE204600F0CAF82068D8
:104A2000416901F400514161206807F0E9FD10F08F
:104A3000080F07D0204600F0DBF82068416901F03C
:104A400008014161206807F0DBFD10F0800F17D0EE
:104A5000A86920F08001A9610126606801280FD9AA
:104A600006EBC60004EB800090F87F02012803D11A
:104A7000F1B22046FFF7EDFC761C6068B042EFD83B
:104A8000206807F0BDFD10F4801F23D00126606868
:104A900001281AD905EB4610D0F8001906EBC6001C
:104AA00004EB800090F84020012A0AD111F0004F59
:104AB00007D080F83F90F0B240F080012046FFF729
:104AC000C8FC761C6068B042E4D82068416901F4F3
:104AD00080114161206807F093FD10F4001F2DD074
:104AE00001206168012924D905EB4011D1F8001B90
:104AF00000EBC00204EB820292F88032012B14D149
:104B000011F0004F11D094F8FC3401F4803103F01F
:104B10000103994209D182F87F92A96941F080028C
:104B2000AA61696911F0800F2AD0401C6168814236
:104B3000DAD82068416901F400114161206807F06A
:104B40005FFD10F0804F07D02046FFF754FC20682F
:104B5000416901F080414161206807F051FD10F08A
:104B6000040F0BD02068456815F0040F02D02046D2
:104B7000FFF768FC2068416829434160BDE8F09F69
:104B8000D5F8040840F40070C5F80408D1E770B502
:104B900004460D462946D4F8080506F053FE70BDBC
:104BA00070B504460D462946D4F8080506F05FFEA8
:104BB00070BD70B504460125E06808B9002506E01F
:104BC000E068022801D1012501E0FDF745FD2946F5
:104BD000D4F8080506F0D7FED4F8080506F08CFED8
:104BE00070BD10B50446D4F8080506F0B5FE10BD3A
:104BF00010B50446D4F8080506F0B8FE10BD10B58F
:104C0000044694F8BC0401280BD0012084F8BC04AD
:104C100084F83810206807F01BFD002084F8BC04DD
:104C200010BD022010BD10B5044604F2C441D4F8F2
:104C3000080506F0BEFE10BD10B50446D4F8080500
:104C400006F0FCFE2068D0F8000E40F0010021685C
:104C5000C1F8000E206A28B10348006840F0060041
:104C60000149086010BD000010ED00E02DE9F84397
:104C700004464FF0010820784FF0000710F0050FB0
:104C800033D0DFF84491C9F86870FFF711F9064690
:104C90004E4D286810F0006F0BD0FFF709F9801B0C
:104CA000022802D90320BDE8F883286810F0006FBD
:104CB000F3D16068217A800140EA017044490860BC
:104CC000C9F86880FFF7F4F80646286810F0006F0E
:104CD0000BD1FFF7EDF8801B022802D90320BDE8B5
:104CE000F883286810F0006FF3D0207810F0020FDE
:104CF0005CD03848016841F080510160006800F0E4
:104D000080500090344D286840F480702860FFF790
:104D1000CFF80646286810F4807F0BD1FFF7C8F85B
:104D2000801B022802D90320BDE8F883286810F40C
:104D3000807FF3D0294D286800F4407028B3A18902
:104D400001F44071814220D0286820F44070244949
:104D5000C1F800800F602860286810F0010F14D09F
:104D6000FFF7A6F80646286810F0020F0DD141F2B1
:104D70008837FFF79DF8801BB84202D90320BDE8B1
:104D8000F883286810F0020FF3D0E0684FF4407108
:104D900031EA000213490CD0086820F4F8100860CA
:104DA0002868A189C1F30B01084328600020BDE8F1
:104DB000F8830A6820F4407022F4F81220F0704062
:104DC00010430860ECE70000000047420038024052
:104DD0008438024040380240007000407038024081
:104DE000400E4742083802402DE9F04704460D4680
:104DF000002C13D0DFF85491D9F80000EFB200F086
:104E00000700A8420DD289F80070D9F8000000F020
:104E10000700A84205D00120BDE8F0870120BDE8C9
:104E2000F08720684A4E10F0020F14D010F0040FE3
:104E300003D0306840F4E0503060207810F0080F64
:104E400003D0306840F4604030603068A16820F0E2
:104E5000F00008433060207810F0010F3ED0606809
:104E60003C49012808D002280DD003280BD009683E
:104E700011F0020F28D00AE0096811F4003F06D1B2
:104E80000120BDE8F087096811F0007F19D0316872
:104E900021F0030108433060FFF70AF880463068CC
:104EA000616800F00C00B0EB810F17D041F2883A36
:104EB000FEF7FEFFA0EB0800504508D90320BDE82F
:104EC000F0870120BDE8F0870120BDE8F087306859
:104ED000616800F00C00B0EB810FE9D1D9F8000057
:104EE00000F00700A8420AD989F80070D9F800003C
:104EF00000F00700A84202D00120BDE8F08720782A
:104F000010F0040F05D03068E16820F4E050084349
:104F10003060207810F0080F06D03068216920F446
:104F2000604040EAC100306000F042F831680A4A4F
:104F3000C1F30311515CC840084908600848006883
:104F4000FFF7B8F90020BDE8F0870000003C024000
:104F50000838024000380240BC4701083C000020ED
:104F6000E005002001480068704700003C00002078
:104F700000B5FFF7F7FF04490968044AC1F382212D
:104F8000515CC84000BD000008380240CC47010811
:104F900000B5FFF7E7FF04490968044AC1F342314D
:104FA000515CC84000BD000008380240CC470108F1
:104FB00010B51748006810F00C01164816D0164BB3
:104FC000042912D0082911D1144C216801F03F02A4
:104FD000216811F4800F0AD02068C0F38810A0FB6C
:104FE00003010023FBF75CFF09E0184610BD2168B0
:104FF0000023C1F38811A1FB0001FBF751FF2168D9
:10500000C1F30141491C4900B0FBF1F010BD0000A3
:10501000083802400024F400001BB70004380240A6
:105020002DE9F84F0446002C12D02078FB4E10F0EA
:10503000010FA6F1040563D0301D016801F00C01D9
:1050400004290CD0006800F00C00082803D010E000
:105050000120BDE8F88F306810F4800F09D028686F
:1050600010F4003F4CD06068002849D10120BDE811
:10507000F88F6068B0F5803F14D0B0F5A02F16D03F
:10508000286820F480302860286820F48020286078
:10509000606810B3FEF70CFF0746286810F4003F65
:1050A0000ED02DE0286840F480302860F0E72868B2
:1050B00040F480202860286840F480302860E7E7CA
:1050C000FEF7F6FEC01B642802D90320BDE8F88F66
:1050D000286810F4003FF3D012E0FEF7E9FE07461F
:1050E000286810F4003F0BD0FEF7E2FEC01B6428D6
:1050F00002D90320BDE8F88F286810F4003FF3D1EF
:105100002078C74F10F0020F4FF0000957D0C54864
:10511000016811F00C0F14D0006800F00C00082892
:1051200003D1306810F4800F0BD0E06880B3012009
:105130003860FEF7BDFE8046286810F0020F12D0DE
:105140001EE0286810F0020F05D0E068012802D0A8
:105150000120BDE8F88F2868216920F0F80040EAB6
:10516000C10028602BE0FEF7A3FEA0EB0800022898
:1051700002D90320BDE8F88F286810F0020FF2D0A2
:105180002868216920F0F80040EAC100286016E094
:10519000FFE7C7F80090FEF78BFE8046286810F006
:1051A000020F0CD0FEF784FEA0EB0800022802D903
:1051B0000320BDE8F88F286810F0020FF2D12078A4
:1051C00010F0080F35D09848DFF860A26169C1B1CE
:1051D00001210160FEF76CFE8046DAF8000010F055
:1051E000020F26D1FEF764FEA0EB0800022802D9C8
:1051F0000320BDE8F88FDAF8000010F0020FF1D0BC
:1052000017E0C0F80090FEF753FE8046DAF8000081
:1052100010F0020F0DD0FEF74BFEA0EB08000228A5
:1052200002D90320BDE8F88FDAF8000010F0020F71
:10523000F1D1207810F0040F71D04FF000087C48B5
:10524000006810F0805F0AD17948016841F0805110
:105250000160006800F0805000904FF00108DFF816
:10526000D4B1DBF8000010F4807F1BD1DBF8000024
:1052700040F48070CBF80000FEF71AFE8246DBF89F
:10528000000010F4807F0DD1FEF712FEA0EB0A00A3
:10529000022802D90320BDE8F88FDBF8000010F4E3
:1052A000807FF1D0A068DFF890B1012818D00528E0
:1052B0001DD0DBF8000020F00100CBF80000DBF887
:1052C000000020F00400CBF80000A06840B3FEF717
:1052D000EFFD8246DBF8000010F0020F14D03EE034
:1052E000DBF8000040F00100CBF80000EDE7DBF850
:1052F000000040F00400CBF80000DBF8000040F0B4
:105300000100CBF80000E0E7FEF7D2FDA0EB0A01B8
:1053100041F28830814204D90320BDE8F88F26E0AD
:1053200005E0DBF8000010F0020FEDD017E0FEF70B
:10533000BFFD8246DBF8000010F0020F0FD0FEF731
:10534000B7FDA0EB0A0141F28830814202D9032067
:10535000BDE8F88FDBF8000010F0020FEFD1B8F1D4
:10536000010F04D13248016821F080510160A06929
:10537000F0B32C4909684FF0FF3801F00C010829FF
:1053800066D0022810D0C7F86090FEF791FD044661
:10539000286810F0007F2BD0FEF78AFD001B022842
:1053A00051D90320BDE8F88FC7F86090FEF780FD63
:1053B0008146286810F0007F0CD0FEF779FDA0EB45
:1053C0000900022802D90320BDE8F88F286810F0F0
:1053D000007FF2D1216AE069A26A0843616A08EBA2
:1053E0005202890141EA0241084394F82C1000E07E
:1053F00055E040EA0160306001203866FEF758FD54
:105400000446286810F0007F49D1FEF751FD001BCB
:10541000022813D90320BDE8F88F000004380240A9
:105420000000474208380240800E4742743802406C
:10543000403802400070004070380240286810F088
:10544000007FE2D02BE0286810F0007FA4D126E096
:10545000012822D03068E26900F4800191421AD11B
:10546000226A00F03F01914215D147F6C071626A8D
:105470000140B1EB821F0ED1A26A00F4403108EB6B
:105480005202B1EB024F06D194F82C1000F070607C
:10549000B0EB016F03D00120BDE70120BBE7002086
:1054A000B9E770B50446002C03D06079002510B12F
:1054B00005E0012070BD2571204600F00DF80220A6
:1054C00060712068016841F0040101600120607191
:1054D000A560002070BD000008B50A4A016891422D
:1054E0000FD100BF002100910749096841F0400138
:1054F000054A11601146096801F04001009100BFA2
:1055000000BF08BD000806503438024010B50446FC
:10551000002C02D0607F10B106E0012010BD0020F9
:105520002077204600F03CF8022060772168CA20EE
:105530004862216853204862204605F03BF9014645
:10554000E1B92068816821F0400121F4E001816027
:105550002068816862686369114322691A431143B4
:1055600081602168E068086120680169228941EA58
:1055700002410161204605F041F9014659B9206810
:10558000026C22F4802202642068026CA3691A4330
:105590000264012060772268FF205062084610BD37
:1055A0001FB5044600200090019002900390094925
:1055B000206888420CD1022000900748039068467A
:1055C000FFF754FB08B1FDF747F8012003490860D5
:1055D0001FBD00000028004000031E003C0E474293
:1055E00070B504462068C16821F0A001C160FEF7D3
:1055F0005FFC05462068C06810F0200F0CD1FEF754
:1056000057FC401BB0F57A7F01D9032070BD20689C
:10561000C06810F0200FF2D0002070BD70B50446B5
:10562000002C09D0606A002540B125616561A56242
:1056300094F8510040B10CE0012070BD6068B0F5F5
:10564000827FF4D0E561F2E784F85050204600F004
:1056500045F8022084F851002068016821F04001DB
:105660000160A088218900F4827001F4044108439C
:10567000A18901F400610843217C01F00201084383
:10568000217D01F001010843218B01F400710843E1
:10569000217F01F03801084394F8201001F08001C7
:1056A0000843218D01F40051084321680860A16975
:1056B000042000EA114094F8241001F01001014385
:1056C000206841602068C16921F40061C16165659D
:1056D000012084F85100002070BD000010B586B094
:1056E0000446142101A8FBF7F3FC674920688842AF
:1056F0007ED100BF002000906448006840F48050D4
:10570000624908600846006800F48050009000BFBD
:1057100000BF00BF002000905C481438006840F0D3
:1057200002005A49143908600846006800F0020077
:10573000009000BF00BF00BF002000900846006836
:1057400040F0010008600846006800F00100009089
:1057500000BF00BF1820019002200290012003909A
:10576000032004900520059001A94948FEF790FA0E
:1057700080200190022002900120039003200490D9
:105780000520059001A94348FEF782FA42484349A3
:1057900008604FF0C0604860002140488160C160EF
:1057A0004FF480610161002141618161C1614FF469
:1057B0004031016200214162FEF7ACF908B1FCF70B
:1057C0004BFF00BF3548E064846300BF32481830A7
:1057D000334908604FF0C060486040213048816024
:1057E0000021C1604FF4806101610021416100E04E
:1057F00010E08161C1614FF400310162002141621A
:10580000FEF788F908B1FCF727FF00BF2448A06421
:10581000846336E023492068884232D100BF0020EB
:1058200000901A48001F006840F480401749091F83
:1058300008600846006800F48040009000BF00BF88
:1058400000BF0020009011481438006840F00200AA
:105850000E49143908600846006800F00200009004
:1058600000BF00BF4FF46040019002200290012071
:105870000390032004900520059001A90448FEF739
:1058800007FA06B010BD0000003001404438024065
:105890000004024000000240406402402C1000203E
:1058A0008C100020003800402DE9F84F04460A9E75
:1058B0008A4693461F4601254FF0000894F8500091
:1058C00001280ED0012084F85000FEF7F1FA81463D
:1058D00094F85100616801280ED0B1F5827F07D19C
:1058E00002E00220BDE8F88FA16809B9042803D0BE
:1058F0004FF0020800F0CBB8BAF1000F1DD0BBF199
:10590000000F1AD0380018D094F85100042802D0A3
:10591000052084F8510000206065C4F838B0E7879E
:10592000A787C4F830A0E786A78620646064206853
:10593000016811F0400F03D006E04FF00108A6E027
:10594000016841F040010160E068B0F5006F05D0EA
:105950006068002848D0012F46D07EE0606808B11A
:10596000012F3AD1206B21680088C860206B801C11
:105970002063E08E401EE0862FE02068816811F0F1
:10598000020F0DD0E18E59B1012D09D1216B09888B
:10599000C160206B801C2063E08E401EE0860025E5
:1059A0002068816811F0010F0BD0E18F49B1C06808
:1059B000A16B0880A06B801CA063E08F401EE08775
:1059C0000125FEF775FAA0EB0900B04205D3B6F148
:1059D000FF3F02D04FF0030859E0E08E0028CCD101
:1059E000E08F0028C9D13EE0206B21680078087361
:1059F000206B401C2063E08E401EE0862DE0206876
:105A0000816811F0020F0DD0E18E59B1012D09D13D
:105A1000216B09780173206B401C2063E08E401ECF
:105A2000E08600252068816811F0010F0BD0E18F1E
:105A300049B1C068A16B0870A06B401CA063E08FE7
:105A4000401EE0870125FEF733FAA0EB0900B042C3
:105A500002D3B6F1FF3F11D186B1E08E0028CED13E
:105A6000E08F0028CBD14A463146204604F0DCFEC8
:105A700038B14FF001082020606508E04FF00308BE
:105A800005E0A06818B92068C1688068009001200E
:105A900084F85100002084F850004046BDE8F88F9B
:105AA000401EB0F1807F01D3012070474FF0E0210C
:105AB0004861044AF02010700020886107200861C6
:105AC0000020704723ED00E090F83C20012A2CD004
:105AD000012280F83C20CA680023D1F808C022F4D3
